:020000040000fa
:080000000002040000000000f2
:020000040000fa
:04000800520300009f
:020000040000fa
:04000c00520300009b
:020000040000fa
:040010005203000097
:020000040000fa
:040014005203000093
:020000040000fa
:04001800520300008f
:020000040000fa
:04001c00520300008b
:020000040000fa
:040020005203000087
:020000040000fa
:040024005203000083
:020000040000fa
:04002800520300007f
:020000040000fa
:04002c00520300007b
:020000040000fa
:040030005203000077
:020000040000fa
:040034005203000073
:020000040000fa
:04003800520300006f
:020000040000fa
:04003c00520300006b
:020000040000fa
:040040005203000067
:020000040000fa
:04004400d4020000e2
:020000040000fa
:04004800e8020000ca
:020000040000fa
:04004c00520300005b
:020000040000fa
:040050005203000057
:020000040000fa
:040054005203000053
:020000040000fa
:04005800520300004f
:020000040000fa
:04005c00520300004b
:020000040000fa
:040060005203000047
:020000040000fa
:040064005203000043
:020000040000fa
:04006800520300003f
:020000040000fa
:04006c00520300003b
:020000040000fa
:040070005203000037
:020000040000fa
:04007400f002000096
:020000040000fa
:04007800520300002f
:020000040000fa
:04007c00520300002b
:020000040000fa
:040080005203000027
:020000040000fa
:040084005203000023
:020000040000fa
:04008800520300001f
:020000040000fa
:04008c00520300001b
:020000040000fa
:040090005203000017
:020000040000fa
:040094005203000013
:020000040000fa
:04009800520300000f
:020000040000fa
:04009c00520300000b
:020000040000fa
:0400a0005203000007
:020000040000fa
:0400a4005203000003
:020000040000fa
:0400a80052030000ff
:020000040000fa
:0400ac0052030000fb
:020000040000fa
:0400b00052030000f7
:020000040000fa
:0400b40052030000f3
:020000040000fa
:0400b80052030000ef
:020000040000fa
:0400bc0052030000eb
:020000040000fa
:0400c00052030000e7
:020000040000fa
:0400c40052030000e3
:020000040000fa
:0400c80052030000df
:020000040000fa
:0400cc0052030000db
:020000040000fa
:0400d00052030000d7
:020000040000fa
:0400d40052030000d3
:020000040000fa
:0400d80052030000cf
:020000040000fa
:0400dc0052030000cb
:020000040000fa
:0400e00052030000c7
:020000040000fa
:0400e40052030000c3
:020000040000fa
:0400e80052030000bf
:020000040000fa
:0400ec0052030000bb
:020000040000fa
:0400f00052030000b7
:020000040000fa
:0400f40052030000b3
:020000040000fa
:0400f80052030000af
:020000040000fa
:0400fc0052030000ab
:020000040000fa
:0401000052030000a6
:020000040000fa
:0401040052030000a2
:020000040000fa
:04010800520300009e
:020000040000fa
:04010c00520300009a
:020000040000fa
:040110005203000096
:020000040000fa
:040114005203000092
:020000040000fa
:04011800520300008e
:020000040000fa
:04011c00520300008a
:020000040000fa
:040120005203000086
:020000040000fa
:040124005203000082
:020000040000fa
:04012800520300007e
:020000040000fa
:04012c00520300007a
:020000040000fa
:040130005203000076
:020000040000fa
:040134005203000072
:020000040000fa
:04013800520300006e
:020000040000fa
:04013c00520300006a
:020000040000fa
:040140005203000066
:020000040000fa
:040144005203000062
:020000040000fa
:04014800520300005e
:020000040000fa
:04014c00520300005a
:020000040000fa
:040150005203000056
:020000040000fa
:040154005203000052
:020000040000fa
:04015800520300004e
:020000040000fa
:04015c00520300004a
:020000040000fa
:04020800520300009d
:020000040000fa
:04020c005203000099
:020000040000fa
:040210005203000095
:020000040000fa
:040214005203000091
:020000040000fa
:04021800520300008d
:020000040000fa
:04021c005203000089
:020000040000fa
:040220005203000085
:020000040000fa
:040224005203000081
:020000040000fa
:04022800520300007d
:020000040000fa
:04022c005203000079
:020000040000fa
:040230005203000075
:020000040000fa
:040234005203000071
:020000040000fa
:04023800520300006d
:020000040000fa
:04023c005203000069
:020000040000fa
:040240005203000065
:020000040000fa
:04024400d4020000e0
:020000040000fa
:04024800e8020000c8
:020000040000fa
:04024c005203000059
:020000040000fa
:040250005203000055
:020000040000fa
:040254005203000051
:020000040000fa
:04025800520300004d
:020000040000fa
:04025c005203000049
:020000040000fa
:040260005203000045
:020000040000fa
:040264005203000041
:020000040000fa
:04026800520300003d
:020000040000fa
:04026c005203000039
:020000040000fa
:040270005203000035
:020000040000fa
:04027400f002000094
:020000040000fa
:04027800520300002d
:020000040000fa
:04027c005203000029
:020000040000fa
:040280005203000025
:020000040000fa
:040284005203000021
:020000040000fa
:04028800520300001d
:020000040000fa
:04028c005203000019
:020000040000fa
:040290005203000015
:020000040000fa
:040294005203000011
:020000040000fa
:04029800520300000d
:020000040000fa
:04029c005203000009
:020000040000fa
:0402a0005203000005
:020000040000fa
:0402a4005203000001
:020000040000fa
:0402a80052030000fd
:020000040000fa
:0402ac0052030000f9
:020000040000fa
:0402b00052030000f5
:020000040000fa
:0402b40052030000f1
:020000040000fa
:0402b80052030000ed
:020000040000fa
:0402bc0052030000e9
:020000040000fa
:0402c00052030000e5
:020000040000fa
:0402c40052030000e1
:020000040000fa
:0402c80052030000dd
:020000040000fa
:0402cc0052030000d9
:020000040000fa
:0402d00052030000d5
:020000040000fa
:0402d40052030000d1
:020000040000fa
:0402d80052030000cd
:020000040000fa
:0402dc0052030000c9
:020000040000fa
:0402e00052030000c5
:020000040000fa
:0402e40052030000c1
:020000040000fa
:0402e80052030000bd
:020000040000fa
:0402ec0052030000b9
:020000040000fa
:0402f00052030000b5
:020000040000fa
:0402f40052030000b1
:020000040000fa
:0402f80052030000ad
:020000040000fa
:0402fc0052030000a9
:020000040000fa
:0403000052030000a4
:020000040000fa
:0403040052030000a0
:020000040000fa
:04030800520300009c
:020000040000fa
:04030c005203000098
:020000040000fa
:040310005203000094
:020000040000fa
:040314005203000090
:020000040000fa
:04031800520300008c
:020000040000fa
:04031c005203000088
:020000040000fa
:040320005203000084
:020000040000fa
:040324005203000080
:020000040000fa
:04032800520300007c
:020000040000fa
:04032c005203000078
:020000040000fa
:040330005203000074
:020000040000fa
:040334005203000070
:020000040000fa
:04033800520300006c
:020000040000fa
:04033c005203000068
:020000040000fa
:040340005203000064
:020000040000fa
:040344005203000060
:020000040000fa
:04034800520300005c
:020000040000fa
:04034c005203000058
:020000040000fa
:040350005203000054
:020000040000fa
:040354005203000050
:020000040000fa
:04035800520300004c
:020000040000fa
:04035c005203000048
:020000040000fa
:100400008f8020000edf20000e0188000000000019
:10041000000020000000e000020032000001200087
:100420002002880014000700a00007000000e00080
:1004300003003a00604e2000010020000200370057
:100440000000200001002000810f70000100320038
:1004500014000700000020000000e000020032004d
:10046000000002000000000066040200000000001e
:100470000040da000000fe004440a9000000200017
:100480000000e0000300320000002000a00188000e
:100490004440a800000006008a1f78008b1f7800e7
:1004a0000000060091018800800478000000eb0045
:1004b0001a003700e284440032a0b4009905ba0063
:1004c000e284440032a0b4009906ba00e2844400f9
:1004d00032a0b4000006eb00476fde00fd07b2005b
:1004e000636ce10003003a00ebff07000000eb0043
:1004f0000a003700606ce10004003a00005deb0088
:100500008b05e900fdff3e00040037006168e10053
:10051000010032000086eb000b00070019c7ba008b
:100520001905ba000e04e00003003a000a00e000da
:10053000e0ff3a0000000600fe07b2009e018800be
:100540008a047800f5ff3700395dba008b05e900b1
:100550000c003200295dba008b05e900080032006a
:100560000c00e00003003a00e284440032a0b40032
:10057000f5ff370019ddba008b05e900faff3a00f4
:100580008904e800e184440032a0b40000000600c1
:10059000000000000000000000000000000000005b
:1005a0000000000000000000801f78000000fa003a
:1005b000204080000000e800204088000621ef0075
:1005c00084e0a9000080fa004f0078000040060097
:1005d0000000fa008500a9000080fa000040060033
:1005e000809fbe000000fa008660a90007c8bf0017
:1005f00006e8b700101680006400600000f0a70055
:100600000000ea000000e9004f00de0080407800b2
:1006100050168000700060000000e00002003a0008
:1006200020c0b300010037000040eb0080c0700024
:1006300010168000700060000000e00002003a0028
:1006400040c0b300010037000040eb0000c0700064
:1006500007e8b70006c8bf00e44f50000c003a009e
:1006600007c8bf000004e00009003a000040800015
:100670000000d1000040880001408000e00320001d
:10068000808f500002003a00007d2000004088006a
:1006900010002000104088000080fa004f00be00cb
:1006a000004006000040da000000fe0000000500e7
:020000040000fa
:1006b0000000fa00c902a900c082a8006800a800d2
:1006c0006000a800c882a8006820a8006020a800d8
:1006d000c042a8006bc0a80063c0a8000080fa0058
:1006e000000006000000fa00401f20008000070004
:1006f0001061a90094e0a800a00f20006008880005
:1007000091088000f0fc2f00008060000040a000f5
:10071000900888001221a90013a1a90041058000ba
:1007200080ff2f00008060000010a00040058800be
:100730008500a9009500a80090d0230070088800cb
:100740000a21ef0013e1a800007d2000004088008e
:100750000080fa00000006000000fa000228ef0006
:1007600061058000f0ff2800808060000000260006
:1007700001007000600588008660a9009660a800ee
:100780000080fa00000006000000fa0005003700b3
:100790008044200000000100c141200000fa200038
:1007a0000100010007c8bf00e54f5000f8ff32000c
:1007b000050037008044200000000100c1412000f6
:1007c000401f20000100010007c8bf00e34f500098
:1007d000f8ff3200050037008044200000000100cf
:1007e000c1412000a00f20000100010007c8bf0088
:1007f000e14f5000f8ff3200050037008044200030
:1008000000000100c1412000004080000100010003
:1008100007c8bf00e24f5000f8ff3200004420003c
:10082000000001000140fe00000000000228ef006f
:100830000080fa00000006000200fa00000f7800b5
:100840000621ef000428ef0011e1a80006003700a0
:10085000104080000000e000020032000228ef009b
:10086000040037000140fe00204080009e0f500031
:10087000f7ff390011e1a9000080fa00000006002e
:100880000000fa00cd02a9000080fa000000060076
:100890000000fa00601680004800de006140600041
:1008a0000004a200614060000080fb006100600065
:1008b0004800dd00611680000180a1000100700089
:1008c000601688000080fa00000006000000fa00b0
:1008d0000080eb006019880082ff070074ff0700aa
:1008e0009dff0700e6ff0700a7ff0700feff370098
:1008f0000400fa00100798001e009000010220007a
:10090000810f50000b003200411f2000810f50006a
:1009100005003200e80f500009003a000040eb00eb
:10092000004f78000800370060c6b300004f780021
:100930000500370050c5b300004f780002003700b3
:1009400050c5b300004f780011028000000e200057
:100950000100700010028800213a8000f08f2f0003
:1009600000806000203a88001e81fb008007200084
:10097000a109200033742000804978008149780063
:1009800082497800120020006004200071052000d8
:1009900023742000804978008149780082497800da
:1009a00000000000103a8000610060000000e000dc
:1009b000fcff3a0011028000f0f12f00008060007f
:0c09c000100288000080fa000000060011
:020000040000fa
:1009cc00000800000800000000000000000000000b
:020000040000fa
:0200000401f009
:04000000ffffff00ff
:020000040000fa
:0200000401f009
:04000800ffffff00f7
:020000040000fa
:0200000401f009
:04000c0000000000f0
:020000040000fa
:0200000401f009
:040010007b00000071
:020000040000fa
:0200000401f009
:040014005f00000089
:020000040000fa
:0200000401f009
:04001800fb000000e9
:020000040000fa
:0200000401f009
:04001c00c20000001e
:020000040000fa
:0200000401f009
:04002000ff000000dd
:00000001FF
